{"abi":[{"type":"constructor","inputs":[{"name":"initialOwner","type":"address","internalType":"address"},{"name":"_EAS","type":"address","internalType":"address"}],"stateMutability":"nonpayable"},{"type":"function","name":"EAS","inputs":[],"outputs":[{"name":"","type":"address","internalType":"address"}],"stateMutability":"view"},{"type":"function","name":"attestByDelegation","inputs":[{"name":"delegatedRequest","type":"tuple","internalType":"struct IEAS.DelegatedAttestationRequest","components":[{"name":"schema","type":"bytes32","internalType":"bytes32"},{"name":"data","type":"bytes","internalType":"bytes"},{"name":"expirationTime","type":"uint64","internalType":"uint64"},{"name":"revocable","type":"bool","internalType":"bool"},{"name":"refUID","type":"bytes32","internalType":"bytes32"},{"name":"recipient","type":"address","internalType":"address"},{"name":"value","type":"uint256","internalType":"uint256"},{"name":"deadline","type":"uint64","internalType":"uint64"},{"name":"signature","type":"bytes","internalType":"bytes"}]}],"outputs":[{"name":"attestationUID","type":"bytes32","internalType":"bytes32"}],"stateMutability":"payable"},{"type":"function","name":"getMultisigInfo","inputs":[{"name":"multisig","type":"address","internalType":"address"}],"outputs":[{"name":"numAttestations","type":"uint256","internalType":"uint256"},{"name":"isActive","type":"bool","internalType":"bool"}],"stateMutability":"view"},{"type":"function","name":"getNumAttestations","inputs":[{"name":"multisig","type":"address","internalType":"address"}],"outputs":[{"name":"","type":"uint256","internalType":"uint256"}],"stateMutability":"view"},{"type":"function","name":"isMultisigActive","inputs":[{"name":"multisig","type":"address","internalType":"address"}],"outputs":[{"name":"","type":"bool","internalType":"bool"}],"stateMutability":"view"},{"type":"function","name":"mapMultisigAttestations","inputs":[{"name":"","type":"address","internalType":"address"}],"outputs":[{"name":"","type":"uint256","internalType":"uint256"}],"stateMutability":"view"},{"type":"function","name":"owner","inputs":[],"outputs":[{"name":"","type":"address","internalType":"address"}],"stateMutability":"view"},{"type":"function","name":"renounceOwnership","inputs":[],"outputs":[],"stateMutability":"nonpayable"},{"type":"function","name":"setMultisigActiveStatus","inputs":[{"name":"multisig","type":"address","internalType":"address"},{"name":"active","type":"bool","internalType":"bool"}],"outputs":[],"stateMutability":"nonpayable"},{"type":"function","name":"transferOwnership","inputs":[{"name":"newOwner","type":"address","internalType":"address"}],"outputs":[],"stateMutability":"nonpayable"},{"type":"event","name":"AttestationMade","inputs":[{"name":"multisig","type":"address","indexed":true,"internalType":"address"},{"name":"attestationUID","type":"bytes32","indexed":true,"internalType":"bytes32"}],"anonymous":false},{"type":"event","name":"OwnershipTransferred","inputs":[{"name":"previousOwner","type":"address","indexed":true,"internalType":"address"},{"name":"newOwner","type":"address","indexed":true,"internalType":"address"}],"anonymous":false}],"bytecode":{"object":"0x60a060405234801561000f575f80fd5b5060405161097038038061097083398101604081905261002e9161018c565b816001600160a01b0381166100995760405162461bcd60e51b815260206004820152602660248201527f4f776e61626c653a206e6577206f776e657220697320746865207a65726f206160448201526564647265737360d01b60648201526084015b60405180910390fd5b6100a281610122565b506001600160a01b0381166101105760405162461bcd60e51b815260206004820152602e60248201527f4174746573746174696f6e547261636b65723a2045415320616464726573732060448201526d63616e6e6f74206265207a65726f60901b6064820152608401610090565b6001600160a01b0316608052506101bd565b5f80546001600160a01b038381166001600160a01b0319831681178455604051919092169283917f8be0079c531659141344cd1fd0a4f28419497f9722a3daafe3b4186f6b6457e09190a35050565b80516001600160a01b0381168114610187575f80fd5b919050565b5f806040838503121561019d575f80fd5b6101a683610171565b91506101b460208401610171565b90509250929050565b6080516107956101db5f395f818160a401526103a601526107955ff3fe60806040526004361061008f575f3560e01c80639d5083df116100575780639d5083df146101995780639f5ecdc0146101d6578063ce6597cf14610236578063f2fde38b14610255578063fa6910ee14610274575f80fd5b80630911beb4146100935780630b6d3771146100e3578063715018a61461011c5780638da5cb5b146101325780639d01f8341461014e575b5f80fd5b34801561009e575f80fd5b506100c67f000000000000000000000000000000000000000000000000000000000000000081565b6040516001600160a01b0390911681526020015b60405180910390f35b3480156100ee575f80fd5b5061010e6100fd366004610515565b60016020525f908152604090205481565b6040519081526020016100da565b348015610127575f80fd5b50610130610287565b005b34801561013d575f80fd5b505f546001600160a01b03166100c6565b348015610159575f80fd5b50610189610168366004610515565b6001600160a01b03165f9081526001602081905260409091205460ff1c1490565b60405190151581526020016100da565b3480156101a4575f80fd5b5061010e6101b3366004610515565b6001600160a01b03165f908152600160205260409020546001600160ff1b031690565b3480156101e1575f80fd5b506102216101f0366004610515565b6001600160a01b03165f908152600160208190526040909120546001600160ff1b0381169260ff9190911c90911490565b604080519283529015156020830152016100da565b348015610241575f80fd5b50610130610250366004610544565b61029a565b348015610260575f80fd5b5061013061026f366004610515565b6102f1565b61010e610282366004610575565b61036f565b61028f610452565b6102985f6104ab565b565b6102a2610452565b80156102cb57506001600160a01b03165f9081526001602052604090208054600160ff1b179055565b506001600160a01b03165f90815260016020526040902080546001600160ff1b03169055565b6102f9610452565b6001600160a01b0381166103635760405162461bcd60e51b815260206004820152602660248201527f4f776e61626c653a206e6577206f776e657220697320746865207a65726f206160448201526564647265737360d01b60648201526084015b60405180910390fd5b61036c816104ab565b50565b335f9081526001602052604081208054908261038a836105ad565b9091555050604051637d34887760e11b81526001600160a01b037f0000000000000000000000000000000000000000000000000000000000000000169063fa6910ee9034906103dd908690600401610659565b60206040518083038185885af11580156103f9573d5f803e3d5ffd5b50505050506040513d601f19601f8201168201806040525081019061041e9190610748565b604051909150819033907f56864e1a040fd1c42ea6e21af3974aa6ac80cf2fa06ac0364599ace03b3a397d905f90a3919050565b5f546001600160a01b031633146102985760405162461bcd60e51b815260206004820181905260248201527f4f776e61626c653a2063616c6c6572206973206e6f7420746865206f776e6572604482015260640161035a565b5f80546001600160a01b038381166001600160a01b0319831681178455604051919092169283917f8be0079c531659141344cd1fd0a4f28419497f9722a3daafe3b4186f6b6457e09190a35050565b80356001600160a01b0381168114610510575f80fd5b919050565b5f60208284031215610525575f80fd5b61052e826104fa565b9392505050565b80358015158114610510575f80fd5b5f8060408385031215610555575f80fd5b61055e836104fa565b915061056c60208401610535565b90509250929050565b5f60208284031215610585575f80fd5b813567ffffffffffffffff81111561059b575f80fd5b8201610120818503121561052e575f80fd5b5f600182016105ca57634e487b7160e01b5f52601160045260245ffd5b5060010190565b5f808335601e198436030181126105e6575f80fd5b830160208101925035905067ffffffffffffffff811115610605575f80fd5b803603821315610613575f80fd5b9250929050565b81835281816020850137505f828201602090810191909152601f909101601f19169091010190565b803567ffffffffffffffff81168114610510575f80fd5b60208152813560208201525f61067260208401846105d1565b61012080604086015261068a6101408601838561061a565b925061069860408701610642565b67ffffffffffffffff8116606087015291506106b660608701610535565b80151560808701529150608086013560a08601526106d660a087016104fa565b6001600160a01b03811660c0870152915060c086013560e08601526106fd60e08701610642565b91506101006107178187018467ffffffffffffffff169052565b610723818801886105d1565b878603601f1901848901529350905061073d84848361061a565b979650505050505050565b5f60208284031215610758575f80fd5b505191905056fea2646970667358221220e4ccadda3164d97125d84bd3385198f36021c69215d22957ae0a49d6c818308964736f6c63430008180033","linkReferences":{}},"methodIdentifiers":{"EAS()":"0911beb4","attestByDelegation((bytes32,bytes,uint64,bool,bytes32,address,uint256,uint64,bytes))":"fa6910ee","getMultisigInfo(address)":"9f5ecdc0","getNumAttestations(address)":"9d5083df","isMultisigActive(address)":"9d01f834","mapMultisigAttestations(address)":"0b6d3771","owner()":"8da5cb5b","renounceOwnership()":"715018a6","setMultisigActiveStatus(address,bool)":"ce6597cf","transferOwnership(address)":"f2fde38b"},"id":24}