{"abi":[{"type":"constructor","inputs":[{"name":"initialOwner","type":"address","internalType":"address"}],"stateMutability":"nonpayable"},{"type":"function","name":"NO_OPPORTUNITIES","inputs":[],"outputs":[{"name":"","type":"uint8","internalType":"uint8"}],"stateMutability":"view"},{"type":"function","name":"OPPORTUNITIES_CONSIDERED","inputs":[],"outputs":[{"name":"","type":"uint8","internalType":"uint8"}],"stateMutability":"view"},{"type":"function","name":"VOTES_CAST","inputs":[],"outputs":[{"name":"","type":"uint8","internalType":"uint8"}],"stateMutability":"view"},{"type":"function","name":"getVotingStats","inputs":[{"name":"multisig","type":"address","internalType":"address"}],"outputs":[{"name":"result","type":"uint256[]","internalType":"uint256[]"}],"stateMutability":"view"},{"type":"function","name":"owner","inputs":[],"outputs":[{"name":"","type":"address","internalType":"address"}],"stateMutability":"view"},{"type":"function","name":"register","inputs":[{"name":"multisig","type":"address","internalType":"address"},{"name":"activityType","type":"uint8","internalType":"uint8"}],"outputs":[],"stateMutability":"nonpayable"},{"type":"function","name":"renounceOwnership","inputs":[],"outputs":[],"stateMutability":"nonpayable"},{"type":"function","name":"stats","inputs":[{"name":"","type":"address","internalType":"address"},{"name":"","type":"uint256","internalType":"uint256"}],"outputs":[{"name":"","type":"uint256","internalType":"uint256"}],"stateMutability":"view"},{"type":"function","name":"transferOwnership","inputs":[{"name":"newOwner","type":"address","internalType":"address"}],"outputs":[],"stateMutability":"nonpayable"},{"type":"event","name":"OwnershipTransferred","inputs":[{"name":"previousOwner","type":"address","indexed":true,"internalType":"address"},{"name":"newOwner","type":"address","indexed":true,"internalType":"address"}],"anonymous":false}],"bytecode":{"object":"0x608060405234801561000f575f80fd5b506040516106ad3803806106ad83398101604081905261002e916100f7565b806001600160a01b0381166100985760405162461bcd60e51b815260206004820152602660248201527f4f776e61626c653a206e6577206f776e657220697320746865207a65726f206160448201526564647265737360d01b606482015260840160405180910390fd5b6100a1816100a8565b5050610124565b5f80546001600160a01b038381166001600160a01b0319831681178455604051919092169283917f8be0079c531659141344cd1fd0a4f28419497f9722a3daafe3b4186f6b6457e09190a35050565b5f60208284031215610107575f80fd5b81516001600160a01b038116811461011d575f80fd5b9392505050565b61057c806101315f395ff3fe608060405234801561000f575f80fd5b5060043610610090575f3560e01c8063715018a611610063578063715018a6146100d75780638da5cb5b146100df578063918b69d3146100f957806391996ff21461011a578063f2fde38b1461013a575f80fd5b806307e49598146100945780631bf752ac146100a957806323c11a08146100c757806327fea32b146100cf575b5f80fd5b6100a76100a2366004610449565b61014d565b005b6100b05f81565b60405160ff90911681526020015b60405180910390f35b6100b0600281565b6100b0600181565b6100a76101fc565b5f546040516001600160a01b0390911681526020016100be565b61010c610107366004610483565b61020f565b6040519081526020016100be565b61012d6101283660046104ab565b610231565b6040516100be91906104cb565b6100a76101483660046104ab565b61030d565b610155610386565b600260ff821611156101ba5760405162461bcd60e51b8152602060048201526024808201527f51756f72756d547261636b65723a20496e76616c6964206163746976697479206044820152637479706560e01b60648201526084015b60405180910390fd5b6001600160a01b0382165f90815260016020526040902060ff8216600381106101e5576101e561050e565b018054905f6101f383610522565b91905055505050565b610204610386565b61020d5f6103df565b565b6001602052815f5260405f208160038110610228575f80fd5b01549150829050565b604080516003808252608082019092526060916020820183803683375050506001600160a01b0383165f9081526001602052604081205482519293509183919061027d5761027d61050e565b6020908102919091018101919091526001600160a01b0383165f90815260019182905260409020015481600160ff16815181106102bc576102bc61050e565b6020908102919091018101919091526001600160a01b0383165f9081526001909152604090206002015481600260ff16815181106102fc576102fc61050e565b602002602001018181525050919050565b610315610386565b6001600160a01b03811661037a5760405162461bcd60e51b815260206004820152602660248201527f4f776e61626c653a206e6577206f776e657220697320746865207a65726f206160448201526564647265737360d01b60648201526084016101b1565b610383816103df565b50565b5f546001600160a01b0316331461020d5760405162461bcd60e51b815260206004820181905260248201527f4f776e61626c653a2063616c6c6572206973206e6f7420746865206f776e657260448201526064016101b1565b5f80546001600160a01b038381166001600160a01b0319831681178455604051919092169283917f8be0079c531659141344cd1fd0a4f28419497f9722a3daafe3b4186f6b6457e09190a35050565b80356001600160a01b0381168114610444575f80fd5b919050565b5f806040838503121561045a575f80fd5b6104638361042e565b9150602083013560ff81168114610478575f80fd5b809150509250929050565b5f8060408385031215610494575f80fd5b61049d8361042e565b946020939093013593505050565b5f602082840312156104bb575f80fd5b6104c48261042e565b9392505050565b602080825282518282018190525f9190848201906040850190845b81811015610502578351835292840192918401916001016104e6565b50909695505050505050565b634e487b7160e01b5f52603260045260245ffd5b5f6001820161053f57634e487b7160e01b5f52601160045260245ffd5b506001019056fea26469706673582212203adce0490f7303e3b0caebced9ebb243c41bcac20a2d98bdf45e3832c041b83664736f6c63430008180033","linkReferences":{}},"methodIdentifiers":{"NO_OPPORTUNITIES()":"23c11a08","OPPORTUNITIES_CONSIDERED()":"27fea32b","VOTES_CAST()":"1bf752ac","getVotingStats(address)":"91996ff2","owner()":"8da5cb5b","register(address,uint8)":"07e49598","renounceOwnership()":"715018a6","stats(address,uint256)":"918b69d3","transferOwnership(address)":"f2fde38b"},"id":22}